:020000040800F2
:10000000600700200D020008D3260008FD2200082A
:10001000D12600081D0400088B2D000800000000F8
:10002000000000000000000000000000E1280008BF
:10003000D104000800000000F7260008E3280008AB
:1000400027020008270200082702000827020008EC
:1000500027020008270200082702000827020008DC
:1000600027020008270200082702000827020008CC
:1000700027020008270200082702000827020008BC
:100080002702000827020008D902000827020008FA
:10009000270200082702000827020008270200089C
:1000A000270200082702000827020008270200088C
:1000B000270200082702000827020008270200087C
:1000C000270200082702000827020008270200086C
:1000D000270200082702000827020008270200085C
:1000E000270200082702000827020008270200084C
:1000F000270200082702000827020008270200083C
:10010000270200082702000827020008270200082B
:10011000270200082702000827020008270200081B
:10012000210400082702000827020008270200080F
:1001300027020008270200082702000827020008FB
:1001400027020008270200082702000827020008EB
:1001500027020008270200082702000827020008DB
:1001600027020008270200082702000827020008CB
:1001700027020008270200082702000800000000EC
:1001800027020008270200082702000827020008AB
:10019000270200082702000827020008270200089B
:1001A000270200082702000827020008270200088B
:1001B000270200082702000827020008270200087B
:1001C000270200082702000800000000270200089C
:1001D000270200082702000827020008270200085B
:1001E000270200082702000827020008270200084B
:1001F0002702000827020008DFF80CD000F018F8EA
:1002000000480047B13300086007002006488047D7
:1002100006480047FEE7FEE7FEE7FEE7FEE7FEE7EB
:10022000FEE7FEE7FEE7FEE795290008F901000872
:10023000064C074D06E0E06840F0010394E8070033
:1002400098471034AC42F6D3FFF7DAFF50B80008F5
:1002500070B8000810B50146806B026C12F0500FA8
:1002600005D0806BC26C0846BDE810401047016C99
:1002700041F40071016401688A6812F0405F17D18F
:100280008269AAB9CA6A12F4700F02D08A6852054C
:100290000ED44A6822F020024A60016C21F4807179
:1002A0000164016CC90403D4016C41F001010164D3
:1002B00000F06CFA10BD10B5806B40210164416CF8
:1002C00041F00401416400F070FA10BD10B5806B7C
:1002D00000F06AFA10BD0000014800F067BA0000A3
:1002E000680200204B496FF0706210B5D1F80433FA
:1002F00023F44033C1F80433D1F804334468234372
:10030000C1F8043301684B6823F480734B600168C3
:1003100003694C6844EA03234B6001684B6823F08F
:1003200040734B60016884684B6823434B600168ED
:100330008B6823F400638B600168C4688B68234377
:100340008B60816AD14201688A6822F070628A609B
:1003500001680DD0836A8A681A438A6001688A68D6
:1003600022F040528A600168C36A8A681A4302E038
:100370008A6822F040528A6001688A6822F002028C
:100380008A60016882698B6843EA42028A60016A76
:10039000002901684A6815D042F400624A60016889
:1003A0004A684FF4604322F460424A60016893FA5D
:1003B000A3F3426AB3FA83F44B68521EA24013437C
:1003C0004B6002E022F400624A600168124BCA6A84
:1003D00022F47002CA620168848BCA6A03EB045378
:1003E0001A43CA6201688A6822F400728A6001684E
:1003F000026B8B6843EA42228A6001688A6822F4B1
:1004000080628A60016840698A6842EA8020886068
:1004100010BD0000002001400000F0FFFEE70000DA
:10042000014800F053BB0000B0020020016818230F
:10043000CAB2103AB2FBF3F2054B6FF30901032A7B
:100440009B5CC36500D9091D8165084670470000A3
:1004500048B8000810B583694FF0C074826A01463D
:10046000002053B1B3F5005F15D072B1012A0CD052
:10047000022A0AD0032A09D104E01AB1012A06D0BF
:10048000022A03D1C96AC90100D5012010BDC96A79
:10049000A142FAD010BD002AF7D0012AF2D0022AD8
:1004A000F3D0032AF3D010BD30B50468256825F4D5
:1004B00080252560046863608368402B036803D04F
:1004C00099600068C26030BD9A600068C16030BD4C
:1004D0007047FEE7F0B5B3F5804F05D06FF070417F
:1004E00040F822100020F0BD8C688E89D1E90037D9
:1004F00025028C6950F8221045EA064543EA0713A5
:10050000034F2B43394023430B4340F82230E9E7A4
:100510000000F0CF2DE9F043D1E902C84A68D1E9E3
:10052000045342EA0C0248EA050842EA080242EA99
:10053000030251F8183BBCF1080F994691E8F011FD
:1005400050F8233042EA04028C6942EA05020D6A3F
:1005500042EA0602CE6942EA0702144F42EA080262
:1005600042EA0C0242EA040242EA050203EA0703F5
:1005700042EA060242EA0302A1F1180101D142F067
:10058000400240F829200A6BB2F5801F05D10A68A5
:100590004AB1026842F4801202600A681AB1026825
:1005A000496B0A4302600020BDE8F0838004C0FF6D
:1005B000F0B58C6800EB8202B1F80CC0D1E90036CE
:1005C0000D8A2702124C47EA0C4743EA06130E7DB8
:1005D0003B4304EB055C55686701D1F818E043EA3A
:1005E0000C0307EB0666334305F0404543EA0E0370
:1005F0002B4353600268D20207D5098A426804EB94
:10060000015122F47002114341600020F0BD00004E
:100610000000F0FF50F8212042F4805240F82120E1
:100620000020704770470000F8B50025009590F84D
:100630003C20012A18D0012280F83C200A680723B8
:100640004E4C0668092A1AD90A3A02EB4207F268A8
:10065000BB409A43F2600E680268A64206D10B7A4C
:10066000D66846EA036308E00220F8BD0A3E8B68BC
:10067000D76806EB4606B3403B43D3600EE002EB7F
:1006800042073269BB409A43326103680E788A6838
:100690001F6906EB4606B2403A431A614A681F23B7
:1006A000072A13D20668521E02EB8207726BBB4008
:1006B0009A43726303680E790A88761E5F6B92B262
:1006C00006EB8606B2403A435A6327E006680D2AD5
:1006D00012D2D21F02EB8207326BBB409A433263C5
:1006E00002680E790B88F61F176B9BB206EB860625
:1006F000B3403B43136311E00D3A02EB8207F26A09
:10070000BB409A43F26202680E790B880D3ED76AAD
:100710009BB206EB8606B3403B43D362184A03689C
:10072000934208D10B68122B05D1D2F8043343F45D
:100730008003C2F80433036893421AD10B68A342C2
:1007400001D0112B15D1D2F8043343F40003C2F8C1
:1007500004330968A1420CD10A490B4A0968B1FB6C
:10076000F2F101EB8101490000E0491E00910029EE
:10077000FBD180F83C500020F8BD000012000010B2
:10078000002001401C00002040420F00054810B529
:1007900082884188008803F00BF8BDE8104002F021
:1007A000E5BB0000000000207047704770B50446AC
:1007B000006801684268C1F34001C2F3401251B3BE
:1007C0004AB3216CC90603D4216C41F40071216441
:1007D000816811F0405F17D1A169A9B9C16A11F40C
:1007E000700F02D0816849050ED4416821F02001C4
:1007F0004160206C20F480702064206CC00403D41D
:10080000206C40F0010020642046FFF7BFFF216804
:100810006FF012000860206801684268C1F380012F
:10082000C2F3C01289B382B3216CC90603D4216C10
:1008300041F400512164816811F4401F1ED1816B85
:1008400011F4401F02D08168490517D44168490559
:1008500014D4816811F0405F10D1A16971B9416869
:1008600021F080014160206C20F480502064206CD5
:10087000C00503D4206C40F0010020642046FFF73F
:10088000D1FE21686FF00C000860206801684368A1
:1008900011F0010FC3F380110ED069B10068C007D9
:1008A0000AD0206C40F480302064204600F046F8E6
:1008B00021686FF001000860206801684268C1F398
:1008C00040110029C2F380620DD0002A0BD0616C68
:1008D0006FF0200541F00201616405602046FFF7DA
:1008E00064FF2068056070BD70B504004FF000051E
:1008F00003D0206C002610B107E0012070BD6664B3
:10090000204684F83C6000F01BF8206CC00610D430
:10091000206C20F4885040F0020020642046FFF74D
:10092000E1FC6664206C20F0020040F001002064CD
:1009300000E0012584F83C60284670BD7047000047
:10094000F0B51E490746006887B0884234D11C487C
:10095000016841F48071016000680025032100F402
:100960008070059007208DE823001648694600F046
:1009700087FA154C1548011520606560C214A56002
:10098000CB00C4E9035186154FF4403004F1140143
:10099000C4E90805204681E84C0000F06BF908B175
:1009A000FFF797FD0022BC6312201146A76300F0F9
:1009B000BFFB122000F0B0FB07B0F0BD00200140EB
:1009C0004438024000000240B0020020106402409F
:1009D000F8B513460A4600210446009190F83C0001
:1009E000012807D0012084F83C0020688568ED07C5
:1009F00002D011E00220F8BD86682E4D46F00106B7
:100A000086602D480068B0FBF5F000EB400000E088
:100A1000401E00900028FBD120688568ED0746D075
:100A2000256C40F20166B54345F480752564406845
:100A3000400505D5206C20F4005040F4805020641F
:100A4000206CC00404D5606C20F00600606400E0F7
:100A500061646FF0220084F83C10A56B1749E963CC
:100A6000A56B17492964A56B1649E96421680860DC
:100A70002068416841F0806141602068816841F4EC
:100A8000807181602168A06B4C3100F063F90E49E0
:100A9000D1F80403C006206801D0884207D18168DC
:100AA00011F0405F03D1816841F0804181600020F6
:100AB000F8BD000040420F001C0000205502000855
:100AC000CD020008B7020008002001402DE9F843DC
:100AD00004464FF00008654B0820CDF800804FF425
:100AE0001652A56D94F85C101B682E68B3FBF2F7E4
:100AF00000FA01F131420FD021680A6852070BD584
:100B00000A6822F004020A6094F85C108840A86029
:100B1000606D40F00100606594F85C1054488840B6
:100B2000304208D021684969090604D5A860606D83
:100B300040F0020060654E4894F85C10C01C88408C
:100B4000304208D021680968890704D5A860606D23
:100B500040F00400606594F85C101020884030423A
:100B600018D021680968090714D5A86020680168B1
:100B7000490304D50068000308D5A16C07E00168AB
:100B8000C90503D4016821F008010160216C09B195
:100B90002046884794F85C1020204FF001098840D7
:100BA000304231D021680968C9062DD5A86094F873
:100BB000350005282068016806D0490347D500683C
:100BC00000031DD4616C1CE021F016010160206857
:100BD000416921F080014161206C08B9A06C20B10D
:100BE0002068016821F00801016094F85C303F2220
:100BF0009A40AA6084F8348084F83590216D1FE013
:100C0000E16B09B120468847606D00282BD0606DEC
:100C1000C00714D0052084F835002068016821F051
:100C2000010101600098401C0090B84203D8206880
:100C30000068C007F6D184F8348084F83590E16C00
:100C4000002910D001B02046BDE8F04308470168F4
:100C5000C905D5D4036823F01003036084F83480F9
:100C600084F83590CCE7BDE8F88300001C00002034
:100C7000010080002DE9F047044600F0F3F9054635
:100C800064B14FF0000984F83490022184F83510E3
:100C90002068016821F0010101600EE00120BDE83B
:100CA000F08700BF00F0DEF9401B052805D92021A0
:100CB0006165032084F83500F1E720680068C0070B
:100CC000F0D1D4E90020D4E90251D4E9043C28430E
:100CD00004F1180519430843116895E8E00140EA5A
:100CE0000C001B4B2843194040EA060040EA07006D
:100CF000B8F1040F40EA010003D1D4E90B13194302
:100D00000843106020680126656A4069042D20F0C0
:100D1000070045EA00050AD1A06A05432046FFF70F
:100D200099FB20B14020606584F83560B6E7206803
:100D300045612046FFF77AFB94F85C303F229A40E9
:100D40008260C4F8549084F835600020A7E7000062
:100D50003F8010E02DE9F041044690F83400002572
:100D60000128A66D0ED094F835C00127002084F824
:100D70003470BCF1010F07D0022584F834002846F6
:100D8000BDE8F0810220FBE7022784F8357060653A
:100D90002046FFF789FB94F85C103F208840B06044
:100DA0002068016841F0160101602068416941F046
:100DB00080014161206C20B12068016841F0080188
:100DC00001602068016841F001010160D7E731B599
:100DD00000F048F9044600F045F90099001B8842EC
:100DE000F9D338BD1F48F0B5016887B0002936D166
:100DF000012101601C48016841F0010101600068A7
:100E000002240025694600F00100059003264CF2FB
:100E1000B3700C278DE8F100144800F031F840F26F
:100E2000CF6069468DE8F100114800F029F843F2DF
:100E30003F0069468DE8F1000E4800F021F84FF4BC
:100E40007F4069468DE8F1000B4800F019F84FF635
:100E5000807069468DE8F100084800F011F807B08D
:100E6000F0BD00001400002038380240000C0240A1
:100E70000020024000140240001C0240001002400A
:100E80002DE9F84FDFF89CE100224FF001084FF008
:100E9000030B4FF00F0A00BF0B6808FA02F423405F
:100EA000A34271D14D68022D01D0122D0FD1D5086A
:100EB0000E69570700EB8505A9462D6AFF0E0AFA51
:100EC00007FCBE4025EA0C052E43C9F820600F79C7
:100ED000550006680BFA05FC07F0030726EA0C0626
:100EE000AF40374307604E68012E05D0022E03D075
:100EF000112E01D0122E0ED18668CF6826EA0C067C
:100F0000AF403743876046680F79A643C7F30017A1
:100F1000974037434760C4688E6824EA0C04AE40AB
:100F20002643C6604C68E40075D53F4C256845F4FF
:100F300080452560246822F00306950704F4804468
:100F400000943A4C2D0F2644D6F80848DFF8E0C04C
:100F50000AFA05F7604524EA070401D100272EE0CC
:100F6000344FB84201D1012729E0334FB84201D1B3
:100F7000022724E0314FB84201D103271FE0304F50
:100F8000B84202D104271AE045E02E4FB84201D101
:100F9000052714E02C4FB84201D106270FE02B4F54
:100FA000B84201D107270AE0294FB84201D10827EA
:100FB00005E0284FB84201D1092700E00A27AF40D9
:100FC00027437546C6F808784E68DEF80040F603F9
:100FD00024EA030400D51C43124E2C60361D4D68D4
:100FE0003468AD0324EA030400D51C430D4F34607C
:100FF00008374D683C68ED0224EA030400D51C4321
:10100000084D3C600C354E682C68B60224EA030497
:1010100000D51C432C60521C102AFFF43DAFBDE8E4
:10102000F88F0000003C014044380240003001408D
:10103000000002400004024000080240000C024090
:10104000001002400014024000180240001C024040
:1010500000200240002402400AB181617047090467
:10106000FBE70000014800687047000020000020F6
:1010700002480168491C0160704700002000002000
:10108000032010B500F074F8002000F005F800F01F
:1010900017F8002010BD0000084910B504464FF4B1
:1010A0007A700968B1FBF0F000F0BFFE0022214623
:1010B000501E00F03DF8002010BD00001C00002074
:1010C000032010B500F054F800226FF00B00114619
:1010D00000F02EF800226FF00A00114600F028F808
:1010E00000226FF00900114600F022F80022501F84
:1010F000114600F01DF80022101F114600F018F8EC
:101100000022901E114600F013F80022BDE81040A6
:10111000501E114600F00CB8410900F01F02890072
:10112000012001F1E0219040C1F80001704700006A
:101130000E4BF0B41B680D46C3F30223C3F1070640
:10114000042E00D90426191D072901D2002300E02E
:10115000DB1E012404FA06F19C40491E2940641E4E
:10116000994014402143F0BC01F0B4BA0CED00E00A
:10117000064900F0070210B54FF6FF040868044B5B
:10118000204040EA02201843086010BD0CED00E04A
:101190000000FA051848F8B5016841F08051016077
:1011A0000068164C00F080500090206840F48030B9
:1011B0002060FFF757FF4FF47A76054605E000BF41
:1011C000FFF750FF401BB0420FD86068C003F7D54F
:1011D000206840F400302060FFF744FF054606E039
:1011E000FFF740FF401BB04201D90320F8BD606803
:1011F0008003F5D50020F8BD403802400070004063
:101200002DE9F047DFF84C8105460E46D8F800007E
:1012100000F00F00B0420CD2D8F8001021F00F01FE
:101220003143C8F80010D8F8000000F00F00B042B9
:1012300065D12878484C800705D5A968206820F03A
:10124000F000084320602878C00747D0424968680A
:101250000839012816D00968022816D08907002904
:101260004DDA216821F0030101432160FFF7FAFE06
:101270006968074641F2883001290FD0022981466A
:1012800019D027E009688903E9E78901E7E700BF8A
:10129000FFF7E8FEC11B494501D918E081462068E7
:1012A000C0F381000128F3D118E000BFFFF7DAFE98
:1012B000C11B49450BD82068C0F381000228F5D135
:1012C0000CE000BFFFF7CEFEC11B494502D9032049
:1012D000BDE8F087206810F00C0FF3D1D8F80010AB
:1012E000404601F00F01B1420BD9016821F00F0116
:1012F00031430160006800F00F00B04201D00120CE
:10130000E6E72878400705D5E968206820F4E05032
:10131000084320602878000706D52869216821F451
:10132000604141EAC000206000F022F82168F0220C
:1013300092FAA2F201F0F001B2FA82F2D140074A29
:10134000515CC840064908600020FFF7A5FE002058
:10135000BEE70000003C02400838024038B80008F0
:101360001C00002001480068704700001C0000209D
:101370001D4930B51D48096811F00C011AD0431001
:10138000042916D0082915D1174947F6C072091F3C
:101390000C680D6804F03F046D020CD50D68B3FBBA
:1013A000F4F092FAA2F31540B3FA83F2D540684301
:1013B0000BE0184630BD0B68B0FBF4F092FAA2F4D3
:1013C0001340B4FA84F2D340584309684FF44032D2
:1013D00092FAA2F201F44031B2FA82F2D140491CF1
:1013E0004900B0FBF1F030BD083802400024F400A1
:1013F0002DE9F84FCA4F05460078A7F10409A9F175
:101400000404C0074AD03868C0F38100012808D01E
:101410003868C0F3810002280AD1D9F800004002E0
:1014200006D52068800339D56868002875D035E076
:101430006868B0F5803F0BD010B1B0F5A02F11D087
:10144000206820F480302060206820F4802002E0B2
:10145000206840F480302060686890B1FFF702FE99
:1014600006460AE0206840F480202060F0E700BFD4
:10147000FFF7F8FD801B642874D820688003F7D537
:101480000CE0FFF7EFFD064605E000BFFFF7EAFDC1
:10149000801B6428F0D820688003F7D42878800760
:1014A00044D538684FF0F80810F00C0F08D03868B1
:1014B000C0F3810002280AD1D9F80000400206D406
:1014C0002068800716D5E868012826D112E0E86870
:1014D000002820681AD040F001002060FFF7C2FD0C
:1014E000064604E0FFF7BEFD801B0228C4D8206832
:1014F0008007F7D52869226898FAA8F1B1FA81F136
:10150000884022F0F801014321600FE020F0010043
:101510002060FFF7A7FD064605E0FEE0FFF7A2FD0D
:10152000801B02281ED820688007F7D4287800077F
:1015300029D57B4869696C3000298046016812D042
:1015400041F001010160FFF78DFD064605E000BF97
:10155000FFF788FD801B022804D8D8F80000800718
:10156000F6D510E07EE021F001010160FFF77AFD81
:10157000064604E0FFF776FD801B022872D8D8F8F3
:1015800000008007F6D42878400756D564483830E4
:10159000016841F0805101600068DFF8888100F047
:1015A00080500090D8F8001041F48071C8F8001005
:1015B000FFF758FD064604E0FFF754FD801B642842
:1015C00050D8D8F80000C005F6D5554EA868683642
:1015D00001280AD008B1052813D0306820F0010096
:1015E0003060306820F0040002E0306840F0010014
:1015F0003060A86841F2883A90B1FFF733FD804629
:101600000AE0306840F004003060EEE7FFF72AFDA2
:10161000A0EB0801514578D830688007F6D50CE07A
:10162000FFF720FD804605E0FFF71CFDA0EB080159
:1016300051456AD830688007F6D4A869E8B339689C
:10164000C1F38101022968D00228206820F080704F
:10165000206003D0FFF706FD054659E0FFF702FDC5
:10166000064606E051E000BFFFF7FCFC801B0228A5
:101670004BD820688001F7D4D5E9091247F6C0702D
:101680004FF0FF374FF4403690FAA0F396FAA6F6E3
:1016900007EB5202B3FA83F3D5E9070CB6FA86F8E2
:1016A00099404FF0706702FA08F297FAA7F71143D2
:1016B0004FF0E04640EA0C0000E02CE0D5E90B32A8
:1016C00096FAA6F5B7FA87F7B5FA85F5BB40084351
:1016D000AA4018431043C9F80000206840F0807009
:1016E0002060FFF7BFFC054605E000BFFFF7BAFC2E
:1016F000401B022809D820688001F7D50BE000BF05
:10170000FFF7B0FC401B022802D90320BDE8F88F88
:1017100020688001F4D40020F8E70120F6E70000FB
:1017200008380240007000402DE9F047040005D061
:1017300094F85D000025A56218B107E00120BDE81E
:10174000F087204684F85C5000F050F8022284F8BC
:101750005D204FF4E0632068016821F040010160E2
:10176000E068984201D9002101E04FF48051B0F5C2
:10177000706F02D0984200D0A5624FF00109266B2D
:101780002EB9984201D9226301E0C4F83090D4E91F
:101790000468D4E90102278B46EA0806A36A1043CD
:1017A00007F4007830432668D4E907C240EA08000D
:1017B00040EA0C00CC460427104318433060D4F8AC
:1017C0001880666B606AE26807EA1847236830434E
:1017D0003A431043084358602068C16921F400610E
:1017E000C161256684F85DC00020A8E710B51C4CD7
:1017F0000021006802220323A04286B014D11948B8
:10180000046844F40044046000680DF1080C0624E8
:1018100000F4004005908CE81A004FF4A05069468F
:10182000CDE90002104816E0104CA04215D10D4839
:10183000001D046844F40014046000680DF1080CF5
:10184000082400F4001005908CE81A006020694616
:10185000CDE900020648FFF713FB06B010BD0000FB
:10186000003C004040380240000802400054014063
:10187000000002402DE9F84F0446406898460D46A6
:10188000B0F5827F17464FF004094FF0000601D1F2
:10189000A06890B194F85C0001281AD04FF0010BB9
:1018A00084F85CB0FFF7DEFB009094F85D004FF029
:1018B000000A01280FD002268FE084F85D901346BD
:1018C0002A4620461146CDF8008000F02BF9BDE8ED
:1018D000F88F0220FBE7002D7ED0002F7CD0E1683E
:1018E00084F85D90C4F860A04FF4E062C4F838A0BA
:1018F00091422564A4F83CA0C4F84CA0C4F850A0C0
:10190000A4F84470A4F84670A4F83EA0206841688A
:1019100002D921F4805101E041F480514160A06876
:10192000B0F5004F04D12068016821F480410160C6
:1019300020680168490603D4016841F04001016054
:10194000E068904219D939E020688168C90708D059
:10195000007B05F8010BB4F84600401EA4F84600D1
:101960000BE0B8F1000F26D0B8F1FF3F05D0FFF72C
:1019700079FB0099411A41451DD2B4F84600002870
:10198000E2D11FE020688168C90708D0C06825F847
:10199000020BB4F84600401EA4F846000EE0B8F171
:1019A000000F08D0B8F1FF3F08D0FFF75BFB0099AC
:1019B000411A414502D303260FE00DE0B4F846007A
:1019C0000028DFD1009A4146204600F095FE08B17C
:1019D00020202066206E00B1012684F85DB03046DC
:1019E00084F85CA073E72DE9F84F044690F85C009A
:1019F00000269846012817460D460DD04FF0010AE3
:101A000084F85CA0FFF72EFB834694F85D00B14696
:101A1000012804D002267FE00220BDE8F88F002DC7
:101A200079D0002F77D0A2680321A563A78784F817
:101A30005D10C4F86090E787C4F84090A4F8449023
:101A4000A4F84690B2F5004FC4F85090C4F84C90FA
:101A500004D12068016841F4804101602068016878
:101A6000490603D4016841F040010160E068B0F527
:101A7000E06F17D83CE020688168890706D535F803
:101A8000021BC160E08F401EE0870BE0B8F1000F41
:101A90002CD0B8F1FF3F05D0FFF7E4FAA0EB0B0123
:101AA000414523D2E08F0028E5D124E020688168F9
:101AB00089070FD5E18F012905D935F8021BC160CF
:101AC000E08F801E04E015F8011B0173E08F401EBB
:101AD000E0870DE0B8F1000F08D0B8F1FF3F07D064
:101AE000FFF7C0FAA0EB0B01414501D3032613E039
:101AF000E08F0028DAD15A464146204600F036FEF3
:101B000008B120202066A06818B92068C1688068E4
:101B10000090206E00B1012684F85DA0304684F864
:101B20005C907AE72DE9F05F0D4690F85C10002696
:101B300099460A9F0129924604464FF001080ED0AB
:101B4000012084F85C00FFF78DFA834694F85D006D
:101B5000616801280CD0B1F5827F07D102E0022034
:101B6000BDE8F09FA16809B9042801D00226E6E08B
:101B7000002D79D0BAF1000FFBD0B9F1000FF8D0E9
:101B800094F85D00042802D0052084F85D00A4F8D4
:101B900044900020A4F83C904FF4E061C4F840A0C9
:101BA000A563E26820668A42E0642065A4F8469056
:101BB000A4F83E9003D8B4F84600012804D9206860
:101BC000426822F4805203E02068426842F4805266
:101BD000426020680268520603D4026842F0400264
:101BE0000260E068884260683FD910B1E08F012848
:101BF00032D1216835F8020BC860E08F401EE087C3
:101C00002AE000BFB8F1000F0DD0E08F58B1206876
:101C10008168890707D535F8022B4FF00008C260AC
:101C2000E08F401EE087B4F8460068B12068816804
:101C3000C90709D0C0684FF001082AF8020BB4F8B0
:101C40004600401EA4F84600781C05D0FFF70AFAAB
:101C5000A0EB0B00B8425ED2E08F0028D2D1B4F8DE
:101C600046000028CED15FE068E010B1E08F012887
:101C700053D1216815F8010B0873E08F401EE087EF
:101C80004BE000BFB8F1000F16D0E08FA0B1206884
:101C90008168890710D5E18F012905D935F8021B24
:101CA000C160E08F801E04E015F8011B0173E08F16
:101CB000401EE0874FF00008B4F8460018B32068D3
:101CC0008168C9071FD0B4F84610012911D9C0682E
:101CD0002AF8020BB4F84600801EA4F84600B4F8B7
:101CE000460001280DD82068416841F480514160C8
:101CF00007E0017B0AF8011BB4F84600401EA4F877
:101D000046004FF00108781C07D0FFF7ABF9A0EBB5
:101D10000B00B84201D3032611E0E08F0028B1D1B7
:101D2000B4F846000028ADD15A463946204600F0A6
:101D30001DFD08B120202066206E00B10126012083
:101D400084F85D000021304684F85C1008E770B527
:101D5000040015460E4603D094F8450010B107E084
:101D6000012070BD002084F84400204600F01AF8DD
:101D7000206804F10801FEF7CDFBA2683146206817
:101D8000FEF716FCE36A2946D4E90102FEF7A2FB3E
:101D9000A168206850F8212042F0010240F821207B
:101DA000002070BDFFF71EB870B5044690F84400DF
:101DB00001280CD0012584F84450A1682068FEF762
:101DC00029FC002084F8455084F8440070BD0220AE
:101DD00070BD30B590F84540042C15D090F84440C3
:101DE000012C13D0012480F84440022580F845508E
:101DF0001BB120CA5B1E20C1FBD1002180F84540E9
:101E000080F84410084630BD012030BD022030BDAE
:101E100004284FF0E020016903D021F004010161A2
:101E2000704741F00401FAE77047401EB0F1807F2F
:101E300010B501D3012010BD4FF0E02460610F21E7
:101E4000601700F047FC0020A0610721216110BD50
:101E500010B5FFF7E9FF10BDF0B590F83820012A62
:101E600029D0012380F8383002224FF0000C80F88E
:101E70003920D1E90146D1E90325D1F800E0164324
:101E80004A6934430E8B4EEA040E8B6A45EA0E050E
:101E90008F8C2A4350F838EB1343D1E9074143EACA
:101EA000064242EA075214432143CEF8441080F818
:101EB00000C00020F0BD0220F0BD30B590F83850D1
:101EC00000231C46012D08D0012580F838501568E4
:101ED000012D04D0082D07D103E0022030BD0123DD
:101EE00002E008244FF48073012902D0022911D1A5
:101EF00008E005685268296EA24099431A400A43D7
:101F00002A6607E0056851686A6EA1409A43194045
:101F100011436966002180F83810084630BD000082
:101F200070B590F83820012A1FD0012280F838209F
:101F300002680F4C5368A242956802D00D4CA24231
:101F400003D14C6823F4700323430C68896800268E
:101F500023F070031C43546025F080050268294378
:101F6000916080F83860304670BD022070BD00007E
:101F7000000001400004014010B50422044600683E
:101F800000F09FFD2068416C41F4004141642068ED
:101F9000016841F001010160002010BD10B504008E
:101FA00003D094F8390010B104E0012010BD2046A0
:101FB00000F00CF8022084F839002068211D00F0A0
:101FC00013FD012084F83900002010BD00B5006821
:101FD00087B00E49884216D10D48016841F00101D1
:101FE000016000680123022200F00100059000203A
:101FF0004FF4805100916946CDE90120CDE90303FA
:102000000448FEF73DFF07B000BD0000000001409E
:10201000443802400004024070B5044690F838008D
:10202000012817D03A4E012584F83850022084F850
:10203000390022689068304020F47F409060086842
:10204000502839D00DDC20285BD005DC98B310284F
:1020500043D153E0022070BD302855D040283CD1F8
:1020600041E0602830D070280CD0B0F5805F03D0FC
:10207000B0F5005F31D112E02068254A70328168E6
:10208000114016E04A682068D1E9021300F024FDEF
:1020900021688868304040F0770088601DE04A6819
:1020A0002068D1E9021300F017FD2068816841F42F
:1020B0008041816011E01EE0CA684968206800F034
:1020C00041FE2068502106E0CA684968206800F097
:1020D0004AFE2068602100F008FD002084F8395095
:1020E00084F8380070BDCA684968206800F02AFE8C
:1020F00020684021EFE720680021ECE720681021EC
:10210000E9E720682021E6E720683021E3E70000C6
:1021100088FFFEFF70B5006886B00F49884218D16D
:102120000024694601264FF4E060009002250B4828
:10213000CDE90154CDE90346FEF7A2FE4FF460401D
:102140000090CDE9015406486946CDE90346FEF703
:1021500097FE06B070BD0000000001400000024084
:102160000004024070B5044690F838000D4601287E
:102170000ED0012684F83860022084F839000C2A39
:1021800045D007DC5AB1042A1BD0082A78D12CE0AC
:10219000022070BD102A4ED0142A71D15DE0206853
:1021A00000F0ACFC2068816941F008018161206881
:1021B000816921F00401816120682A6981691143E4
:1021C00011E0206800F0CEFC2068816941F40061D4
:1021D00081612068816921F48061816120682969B9
:1021E000826942EA012181614AE0206800F0F0FC46
:1021F0002068C16941F00801C1612068C16921F00E
:102200000401C16120682A69C169114311E0206895
:1022100000F014FD2068C16941F40061C1612068CB
:10222000C16921F48061C16120682969C26942EAFB
:102230000121C16124E0206800F02CFD2068416D7F
:1022400041F0080141652068416D21F004014165BC
:1022500020682A69416D114311E0206800F046FDB5
:102260002068416D41F4006141652068416D21F4B1
:102270008061416520682969426D42EA012141651A
:10228000002084F8396084F8380070BD10B504006F
:1022900003D094F8390010B107E0012010BD0020F0
:1022A00084F83800204600F00CF8022084F8390049
:1022B0002068211D00F098FB012084F839000020DF
:1022C00010BD704710B501220446006800F0EEFB17
:1022D00008492068884202D00749884203D1416CEE
:1022E00041F4004141642068016841F0010101604E
:1022F000002010BD0000014000040140FEE7000086
:1023000038B548F204000B4D00228411ADF80000EE
:1023100021462846FEF7A0FE074801224FF47A73B3
:102320006946FFF760FB012221462846FEF794FE2E
:1023300038BD000000080240240000207FB51D4881
:1023400001251B4900242A04032601601103426071
:102350004FF0106284608461C0E90764C0E90345FE
:1023600005634461C0E90A21FEF7BEFA08B1FEF731
:10237000B0F810486946CDE900450294FEF754F9DB
:1023800008B1FEF7A6F802240A486946CDE90054D0
:10239000FEF74AF908B1FEF79CF806486946CDE910
:1023A0000046FEF741F9002801D0FEF792F87FBD04
:1023B0000020014068020020094808B5016841F486
:1023C0008001016000680022114600F48000009046
:1023D0003820FEF7ADFEBDE808403820FEF79CBE71
:1023E000303802401748002130B5174B87B04FF006
:1023F000204505602024C0E90131C160E301C0E946
:10240000041481610F22C1611024C0E908138162A4
:102410006423C1621125016341638163C163016467
:1024200003A80092CDE901230691694680E83400B3
:1024300004480022FFF78BFC002801D0FEF749F882
:1024400007B030BD10030020040100A038482DE97A
:10245000F043016887B041F008010160016801F0B4
:1024600008010591016841F004010160016801F073
:1024700004010591016841F001010160016801F06A
:1024800001010591016841F480710160016801F466
:1024900080710591016841F020010160016801F03F
:1024A00020010591016841F080010160016801F09F
:1024B00080010591016841F002010160016801F0AD
:1024C00002010591016841F01001016000680122DC
:1024D000DFF86080160300F010003146059040469A
:1024E000FEF7BAFDDFF8509040F20227002239468D
:1024F0004846FEF7B1FD0025009601246946404696
:10250000CDE901450394FEF7BBFC00976946CDE990
:10251000014548460394FEF7B3FC20026946CDE925
:10252000000548460295FEF7ABFC07B0BDE8F08316
:1025300030380240000002400008024070B51148E7
:1025400002244FF470630E4E00212202C0E90213F0
:1025500004610723C0E90512C1614FF4827501626D
:102560004162C0E90A1301634163C0E90065FFF7F6
:10257000DBF8002803D0BDE87040FDF7AABF70BDAE
:10258000003C0040240000202DE9F04112484FF4A7
:10259000706500210F4F012200F11008C0E90215FB
:1025A0005302102488E81E000725016241624FF49F
:1025B0008276C0E90A1501634163C0E90076FFF73E
:1025C000B3F8002803D0BDE8F041FDF782BFBDE8B5
:1025D000F08100000054014088000020F0B53B4825
:1025E0000024394920279BB041F21852012592C09E
:1025F00080E834000C38FFF7D1FC08B1FDF769FF23
:1026000032484FF4805615A91596FFF705FD08B11D
:10261000FDF75FFF2D48FFF739FE08B1FDF759FFC1
:102620008020129712A9CDE913402848FFF778FCC3
:1026300008B1FDF74EFF2548012119AA19951A95F1
:10264000FFF73BFC08B1FDF744FF60206946CDE988
:1026500000041E48002202940394049405940694F6
:10266000FFF780FD08B1FDF734FF184804226946E2
:10267000FFF778FD08B1FDF72CFF144808226946E2
:10268000FFF770FD08B1FDF724FF4FF400600790DD
:10269000042341108503C000CDE90814CDE90C43A3
:1026A000CDE9104096220948CDE90E45CDE90A262C
:1026B00007A9FFF7D1FB08B1FDF70BFF0348FFF7B0
:1026C00029FD1BB0F0BD0000000001402C020020DD
:1026D000FEE77047090700284FEA116106DA00F0AB
:1026E0000F0000F1E02080F8141D704700F1E02099
:1026F00080F80014704770472DE9F843044640689D
:102700004FF482761546B04289464FF400474FF4A5
:10271000806809D1A068B84201D0404504D1206842
:10272000016821F04001016000224B4680212046D3
:10273000009500F08FF880B96068B04214D1A068AD
:10274000B84201D040450FD100224B464FF4C06142
:102750002046009500F02EF830B1206E40F02000A9
:1027600020660320BDE8F8830020FBE7F8B5154696
:102770000E4604460B464FF4C0510092002200F072
:1027800019F888B90022334680212046009500F0D0
:1027900061F848B9002233464FF4C06120460095E5
:1027A00000F008F8002804D0206E40F020002066D9
:1027B0000320F8BD2DE9F8434FF4C0681D461746C5
:1027C0000E46DDF8209004463DE0464505D127B988
:1027D000007B8DF800009DF80000681C33D02DB1FF
:1027E000FEF740FCA0EB0900A8422CD3206841680A
:1027F00021F0E00141606068B0F5827F0BD1A068F4
:10280000B0F5004F02D0B0F5806F04D120680168A8
:1028100021F040010160A06AB0F5005F0AD1206894
:102820004DF6FF720168114001602068016841F4B3
:1028300000510160012184F85D10002084F85C00E3
:102840000320BDE8F883206881683140B942BCD1DB
:102850000020F6E72DE9F0411D4616460F460446D6
:10286000DDF8188035E0681C33D02DB1FEF7FAFB97
:10287000A0EB0800A8422CD32068416821F0E001B9
:1028800041606068B0F5827F0BD1A068B0F5004F61
:1028900002D0B0F5806F04D12068016821F04001BA
:1028A0000160A06AB0F5005F0AD120684DF6FF72A2
:1028B0000168114001602068016841F40051016025
:1028C000012184F85D10002084F85C000320BDE83D
:1028D000F081206880683840B042C4D10020F6E71B
:1028E000704710B5FEF7C4FBBDE81040FFF7B0BA63
:1028F000264830B593B0016841F08051016000680E
:1029000000F0805012902248016841F4404101607B
:1029100000680224042300F4404012900120089330
:10292000D82582050104CDE90642CDE909540B946E
:10293000CDE900016846FEF75BFD00B1FEE7FEF75A
:1029400029FC00B1FEE70FAD00214FF4C0524FF457
:10295000805385E80E000F20CDE90D0407210DA856
:10296000FEF74EFC00B1FEE7FEF7FCFC4FF47A7177
:10297000B0FBF1F0FFF759FA0420FFF749FA002203
:10298000501E1146FEF7D4FB13B030BD4038024054
:1029900000700040104A30B51048146800210F4BF9
:1029A00044F470041460083305680D4A0D4C45F07A
:1029B0000105056019600368051D1340074A03609F
:1029C0000C322C600568E305034C25F48025056076
:1029D000803C1160236030BD88ED00E0003802408B
:1029E000FFFFF6FE10300024F0B5254B4FF0804E6F
:1029F000244D02689842244E244F254C09D070453E
:102A000007D0A84205D0B04203D0B84201D0A042BE
:102A100005D1D1F804C022F070024CEA02029842BB
:102A20001BD0704519D0A84217D0B04215D0B8427B
:102A300013D0A04211D0174DA8420ED0164DA84277
:102A40000BD0164DA84208D0154DA84205D0154D03
:102A5000A84202D0144DA84203D1CD6822F440729E
:102A60002A4302608A689842C2620A68826201D080
:102A7000A04201D10969016301214161F0BD00005B
:102A8000000001400004004000080040000C00402D
:102A90000004014000400140004401400048014062
:102AA00000180040001C00400020004010B5046ADF
:102AB00001238A408B409C430462016A11430162F6
:102AC00010BD10B5046A04238A408B409C43046205
:102AD000016A1143016210BD42EA032283680A437E
:102AE00023F47F410A4382607047826822F07002BB
:102AF0000A4342F00701816070470000F0B5026AA6
:102B0000164B154F22F0010298420262066A426893
:102B1000846926F002068B680D6804EA070424F035
:102B2000030443EA060345EA040502D00C4CA04224
:102B30000BD1CC6822F44077D1E9056223F0080379
:102B40001C433E43324324F00403426085614968DC
:102B500041630362F0BD00008FFFFEFF00000140F3
:102B600000040140F0B5026A174B164D22F0100226
:102B700098420262046A4268836924F020048F68E4
:102B80000E6803EA050323F4407544EA071345EA97
:102B9000062402D00D4DA8420ED1CD6823F080034B
:102BA000D1E9056722F4406243EA051342EA86024E
:102BB00023F0400342EA87024260846149688163EE
:102BC0000362F0BDFF8FFFFE0000014000040140E2
:102BD000F0B5026A174B164F22F4807298420262D7
:102BE000056A4368C26925F400758E6802EA070227
:102BF0000C6822F0030745EA062244EA070402D0E3
:102C00000D4DA8420ED1CD6822F40062D1E90567CE
:102C100023F4405342EA052243EA061322F4806279
:102C200043EA07134360C4614968C1630262F0BDAF
:102C30008FFFFEFF0000014000040140F0B5026A72
:102C4000124B114F22F4805298420262046A426889
:102C5000C36924F400548E680D6803EA070323F463
:102C6000407344EA063443EA052302D0084DA842E3
:102C700004D14D6922F4804242EA85124260C36168
:102C8000496801640462F0BDFF8FFFFE000001404F
:102C900000040140F0B5026ADFF844C022F480323B
:102CA0000262056A4268446D25F400350E8960456C
:102CB0000C4F0B6804EA070445EA064543EA04039F
:102CC00002D0094CA04204D14C6922F4803242EA7D
:102CD000042242604365496881650562F0BD0000D9
:102CE000000001408FFFFEFF00040140F0B5026AC2
:102CF000DFF844C022F480120262046A4268436D25
:102D000024F400140E8960450C4F0D6803EA070394
:102D100044EA065443EA052302D0094DA84204D1EF
:102D20004D6922F4802242EA852242604365496867
:102D3000C1650462F0BD000000000140FF8FFFFE8E
:102D40000004014010B5036A046A23F00A0324F06A
:102D50000104046284690B4324F0F00141EA02118A
:102D60008161036210BD10B5036A23F01003036292
:102D70008369046A23F4704324F0A00443EA023216
:102D8000826144EA0111016210BDFEE702E008C859
:102D9000121F08C1002AFAD170477047002001E0D5
:102DA00001C1121F002AFBD17047000010EE101A5B
:102DB00038B5B1F17E5F02DDB7EE000A06E010EE35
:102DC000101A11F1814F01D9BFEE000A9FED151ABB
:102DD000DFED150A154C012240EE010ABCEEE00AB7
:102DE00010EE101A41EA0030ADF800000221204632
:102DF000FEF732F96515204600222946FEF72CF928
:102E00000B4801224FF47A736946FEF7ECFD01226C
:102E100029462046FEF720F9002220460221FEF72F
:102E20001BF938BD00E0FF440000004500080240E7
:102E3000240000200D48F6EE001A9FED0D2AD0ED7B
:102E4000000A90ED010A90ED021ADFED0A2A40EE29
:102E5000610A30EE410A20EE220A41EE610A60EE7C
:102E6000820AC0ED030A80ED040A7047EC000020DE
:102E7000E3AA2A3F4FCC133F1348DFED140A144A4C
:102E800090ED0E0A134B90ED031A20EE200AD0EDC0
:102E9000041ABCEEC00A10EE101A89B202EB8102CD
:102EA00003EB8101D2ED000A91ED000A21EE202A08
:102EB00061EEA00A01EE802A41EE400A80ED052A6B
:102EC000C0ED060A70470000EC00002000F07F45CE
:102ED00038780008383800081C491D4A10B5D1ED73
:102EE0000E0A92ED021A10EE900A1A4B30EEC10A49
:102EF000194C9842F7EE001A06DA11EE100AA042B9
:102F000002DD30EE210A09E010EE900AA04205DD54
:102F100011EE100A984201DA30EE610ADFED0F2A55
:102F20009FED0F1A9FED0F2A60EE222A91ED110AF4
:102F3000DFED0D1A20EE010A22EE821A01EE210ABF
:102F400081ED110AC2ED020A10BD0000EC00002064
:102F500008000020CDCCCC3D6666663F00409C4614
:102F6000CD7D7A3F000070426646B03C2DE9F041CD
:102F70008A488B4C2DED028B9FED8A8A00788A4D12
:102F8000002872D00128DFED898A04F15C0604F183
:102F9000A8077DD002287CD100F0C2FAFFF79CFF81
:102FA00094ED110A04F1F408404688ED010A00F09E
:102FB00059FAFFF73FFFFFF75FFFC6ED008A94ED78
:102FC000050A304686ED010A98ED0A0A87ED000AE7
:102FD00094ED060A87ED010A00F044FA384600F045
:102FE00041FA96ED0A0A84ED090A97ED0A0A84ED82
:102FF0000A0A00F0DDF800F0E1FAD4ED0B0AB0EEB9
:10300000480A296800EE880ABCEEC00A10EE100AD1
:1030100080B24863D4ED0C0AB0EE480A296800EE8D
:10302000880ABCEEC00A10EE100A80B28863D4EDA4
:103030000D0AB0EE480A296800EE880ABCEEC00A04
:1030400010EE100A80B2C863D4ED0E0AB6EE001A74
:10305000B0EE000A70EEC10A20EE800ABDEC028BD1
:103060000020BDE8F041FFF7A1BE00F0D1F84C48C8
:103070004C3090ED000A84ED000A90ED010A84EDD9
:10308000010A90ED020A84ED020AFFF7D3FE01E087
:1030900034E07EE094ED030A84ED070A94ED040A1F
:1030A00084ED080A00F08AFAD4ED0B0AB0EE480A63
:1030B000296800EE880ABCEEC00A10EE100A80B241
:1030C0004863D4ED0C0AB0EE480A296800EE880A7D
:1030D000BCEEC00A10EE100A80B28863D4ED0D0A6F
:1030E000B0EE480A296800EE880ABCEEC00A10EE6D
:1030F000100A80B2C86394ED0B0AAFE700F010FA33
:10310000FFF798FEFFF7B8FEC6ED008A94ED050ABA
:10311000234886ED010A94ED060A5C3087ED010A2A
:1031200000F0A0F91E48A83000F09CF996ED0A0ABC
:1031300084ED090A97ED0A0A84ED0A0A00F038F8CE
:1031400000F03CFAD4ED0B0AB0EE480A296800EE14
:10315000880ABCEEC00A10EE100A80B24863D4EDB3
:103160000C0AB0EE480A296800EE880ABCEEC00AD4
:1031700010EE100A80B28863D4ED0D0AB0EE480A52
:10318000296800EE880ABCEEC00A10EE100A80B270
:10319000C863BDEC028BBDE8F08100000800002090
:1031A000EC00002000C028452C0200200000000098
:1031B0001348DFED140A144A90ED0E0A134BD0EDBC
:1031C000091A20EE200A90ED0A1ABCEEC00A10EE91
:1031D000101A89B202EB810203EB8101D2ED000AE1
:1031E00091ED000A21EEA02A61EE801A01EE402A3C
:1031F00041EE201A80ED072AC0ED081A7047000042
:10320000EC00002000F07F453878000838380008CE
:103210001E480023F0B544884FF480571C4A00EE46
:10322000104A02EB84051B499FED1B1BB8EE402B97
:10323000D5ED000A641CC1ED000A22EE011BA5B207
:103240008488BD4202EB840604F1010496ED000A75
:10325000A6B2F7EEC10B81ED010AC48802EB84022D
:1032600004F1010492ED000AA2B281ED020AC1ED5F
:10327000030A45808680C28000D34380BE4200D3CB
:103280008380BA4200D3C380F0BD00000800002054
:10329000383800083801002074479CA1FAFF2F3FFE
:1032A0003A4ADFED341A9FED340A9FED342AC2ED1D
:1032B0000D1ADFED332A82ED0E0ADFED320A82EDC0
:1032C0000C2A9FED311AC2ED032AC2ED080A82EDE5
:1032D000091A82ED060AC2ED110A82ED121A02F1F4
:1032E0004C0082ED050AC0ED0D1A80ED0E0A80ED4E
:1032F0000C2AC0ED032AC0ED080A80ED091A80ED02
:10330000060AC0ED110A80ED121A00F14C019FED82
:10331000203A80ED050ADFED1F3AC1ED0D1A9FED51
:103320001E4A81ED0E3ADFED1D4AC1ED0C3A9FEDCC
:103330001C5A81ED034AC1ED084A81ED095AF1EEAC
:10334000005A81ED060AB9EE006AC1ED115A5C3AE5
:10335000DFED146A81ED126A9FED137A81ED050AA3
:10336000DFED127AC2ED106A80ED007AC1ED007ACD
:1033700070470000CDCC4C3E0000000052491D3A81
:103380000AD7233DCDCCCC3ECDCCCCBE48010020CD
:1033900017B7D1380AD7A33B9A99193FCDCC4C40E7
:1033A000CDCC4CC000808F3DCDCCCC3D00005244F4
:1033B000FDF766FEFFF79CFAFFF748F8FEF7FCFF03
:1033C000FFF7BCF8FFF70AF9FEF7B8FFFFF70AF8B6
:1033D000FFF7DAF84FF4FA70FDF7F9FC1B48FEF737
:1033E000E3FC1C490123194819A2FEF7F2FC012055
:1033F000FDF7EDFC17490123144815A2091DFEF73E
:10340000E8FCFEF77DFFFFF74BFF3C20FDF7DFFCFC
:10341000114903221148FDF7DBFA11480021FEF79C
:1034200051FF0F480021FEF7A7FD0D480421FEF7CC
:1034300049FF0B480421FEF79FFD09480821FEF7CC
:1034400041FF07480821FEF797FDFEE71003002023
:10345000010000000400006000000020680200205D
:103460002C020020D0ED001AD0ED013A90ED030AB5
:10347000D0ED050A71EEE31A90ED0C3A90ED0D2AAD
:10348000D0ED0B2A20EE210A90ED111AC0ED021AA0
:1034900080ED040A43EE000A42EE220AC0ED100A53
:1034A000F4EEC10AF1EE10FA06DC90ED121AF4EE19
:1034B000C10AF1EE10FA02D280ED051A01E0C0ED6A
:1034C000050A90ED0F2AD0ED051AD0ED0E0A70EE28
:1034D000422A30EE212A90ED081A62EEA01AC0EDC1
:1034E000061A72EE210AC0ED070AF4EEC10AF1EEE7
:1034F00010FA06DC90ED091AF4EEC10AF1EE10FAAA
:1035000002D280ED0A1A03E0C0ED0A0A90ED0A1A11
:1035100080ED0F0A31EE600A80ED0B0A7047000063
:1035200038B5224D4FF48054002221462846FDF73D
:1035300093FD1F4801224FF47A736946FEF79AF90A
:10354000012221462846FDF787FDBDF800104FF007
:103550007E52DFED181A18480909ADF8001000EE88
:10356000901AB1EE0C1AB7EE000AF8EE600A60EE9F
:10357000A10AC0ED0F0AD0ED101A70EEE10A60EE5C
:10358000810A01E070EEC00A10EE901AC0ED0E0A3A
:103590009142F7DC04E000BF70EE800AC0ED0E0A35
:1035A000F5EEC00AF1EE10FAF6D338BD0000024085
:1035B0008800002000008039EC0000207548DFED15
:1035C000760A9FED762AD0ED071A90ED080A0021C1
:1035D00061EEA00A61EE821AB5EEC00ABEEE001AD4
:1035E000F1EE10FAB0EE602AF0EE612A00EE012A48
:1035F00040EE012A00DD0121B5EEC02AF1EE10FAFD
:1036000000DD891CF5EEC02AF1EE10FA00DD091D7F
:10361000B6EE001AF0EE402A072942EE810A42EE89
:10362000811AB7EE002A6DD2DFE801F0040B1A2BE5
:103630003C4B5C0080ED0B1A80ED0C1A80ED0D1AEE
:1036400060E032EE610A30EE600A20EE010A80EDA1
:103650000C0A70EE211AC0ED0B1A31EEA00A1EE022
:1036600072EE601A71EE801A61EE811AC0ED0B1ACB
:1036700071EEA00AC0ED0D0A30EEC00A80ED0C0A12
:1036800040E072EE210A70EEC00A20EE812A80ED41
:103690000B2A72EE610AC0ED0C0A30EE800A80ED52
:1036A0000D0A2FE072EE000A70EEE10A60EE810A68
:1036B000C0ED0D0A30EEC00A80ED0C0A70EE210A52
:1036C0000DE072EE401A71EEA01A61EE811AC0EDA3
:1036D0000C1A31EE800A80ED0D0A70EE600AC0ED22
:1036E0000B0A0FE032EE200A30EE210A20EE012A0A
:1036F00080ED0D2A32EE600A80ED0B0A70EE610A51
:10370000C0ED0C0A90ED0B0AF0EE001A244930EEE1
:10371000410A254B9FED232ADFED242A20EE210AC2
:1037200080ED0B0AD0ED0C0A10EE102A70EEC10AE3
:103730008A4260EEA10AC0ED0C0A90ED0D3A33EE1C
:10374000411A21EE211A80ED0D1A02DD80ED0B2ABF
:1037500005E010EE102A9A4201D9C0ED0B2A10EEB6
:10376000902A8A4202DD80ED0C2A05E010EE902AB4
:103770009A4201D9C0ED0C2A11EE102A8A4202DDCC
:1037800080ED0D2A704711EE101A9942FAD9C0ED5A
:103790000D2A7047EC0000202DB25D3F2DB25DBFB9
:1037A0003333733F3333733F333373BF333373BFB9
:1037B00010B51D4CB1EE0E0A04FA80F01D4B04FA50
:1037C00081F14042494202EE100A04FA82F252426A
:1037D00002EE901A03EE102AB8EEC22AF8EEE22AA0
:1037E000B8EEC33AF6EE040A22EE002A62EE802A10
:1037F00023EE003A9FED0D1A82EE200ADFED0C1A3F
:1038000082EEA02A20EE010A20EE210AC3EE202A31
:1038100062EE010A60EEA10A22EE811A21EE211A5F
:1038200083EC030A10BD0000E1F3FFFF3333534084
:1038300000008039EC00002000000000EC1DC93AB7
:103840003E1C493BC3D4963B3E1CC93BE262FB3B5A
:10385000C3D4163CD3F62F3C151D493C253F623C92
:1038600035617B3CA2418A3CAAD2963CB263A33C20
:10387000BAF4AF3CC285BC3CCA16C93CD2A7D53C01
:10388000DA38E23CE2C9EE3CD158FB3CEDF4033DB2
:10389000643C0A3DE884103D60CC163DD7131D3DC5
:1038A0005B5C233DD3A3293D4AEB2F3DC232363D1D
:1038B0002D793C3DA5C0423D1C08493D874E4F3DFA
:1038C000F294553D6ADC5B3DD522623D4069683D1E
:1038D0009FAE6E3D0AF5743D753B7B3D6AC0803DF1
:1038E00019E3833DC905873D78288A3D274B8D3DE7
:1038F000D76D903D0090933D29B2963DD8D4993D27
:1039000001F79C3DA418A03DCD3AA33D705CA63DB7
:10391000137EA93DB69FAC3D59C1AF3DFCE2B23D1F
:103920001904B63D3525B93D5246BC3D6F67BF3DD4
:103930008B88C23D22A9C53DB8C9C83D4FEACB3DE1
:103940004608CF3D6F2AD23D984CD53D8369D83D7E
:10395000AC8BDB3D97A8DE3DC1CAE13DABE7E43D62
:10396000D509E83DC026EB3DE948EE3DD465F13D83
:10397000BF82F43DE8A4F73DD3C1FA3DBEDEFD3D74
:103980007380003EE90E023E5E9D033ED42B053E51
:1039900049BA063EBF48083E34D7093EAA650B3EE9
:1039A0001FF40C3E95820E3E0A11103E809F113E80
:1039B000F52D133E6ABC143EE04A163EB6D6173EBD
:1039C0002C65193EA1F31A3E787F1C3EED0D1E3E7C
:1039D000639C1F3E3928213EAEB6223E8542243EDE
:1039E000FAD0253ED15C273EA7E8283E1D772A3E27
:1039F000F3022C3EC98E2D3EA01A2F3E76A6303EF5
:103A0000EC34323EC2C0333E984C353E6FD8363E21
:103A10004564383E1CF0393E53793B3E29053D3E16
:103A200000913E3ED61C403E0DA6413EE431433E51
:103A3000BABD443EF146463EC8D2473EFF5B493ED2
:103A4000D5E74A3E0D714C3E44FA4D3E1A864F3E34
:103A5000520F513E8998523EC021543EF8AA553E1D
:103A60002F34573E66BD583E9D465A3ED5CF5B3EED
:103A70000C595D3E43E25E3EDC68603E13F2613EFF
:103A80004A7B633EE201653E1A8B663EB211683E98
:103A9000E99A693E81216B3E1AA86C3E51316E3E17
:103AA000E9B76F3E813E713E19C5723EB24B743E1E
:103AB0004AD2753EE258773E7ADF783E13667A3E08
:103AC0000CEA7B3EA4707D3E3CF77E3E9B3D803EF3
:103AD000E700813EE3C2813E2F86823E2C48833E32
:103AE000280A843E25CC843E718F853E6E51863EE9
:103AF0006A13873E67D5873E6397883E1058893E94
:103B00000D1A8A3E0ADC8A3E069E8B3EB35E8C3ED0
:103B1000B0208D3E5DE18D3E59A38E3E06648F3E02
:103B2000B324903E60E5903E5DA7913E0A68923EC8
:103B3000B728933E14E8933EC1A8943E6E69953E23
:103B40001B2A963EC8EA963E26AA973ED36A983E1E
:103B5000302A993E8EE9993E3BAA9A3E98699B3E4F
:103B6000F6289C3E53E89C3EB1A79D3E0E679E3EC4
:103B70006C269F3EC9E59F3E27A5A03E3563A13E2A
:103B80009222A23EA0E0A23EFD9FA33E0B5EA43E79
:103B9000191CA53E77DBA53E8599A63E9357A73E07
:103BA000A015A83EAED3A83E6D90A93E7B4EAA3E7E
:103BB000890CAB3E47C9AB3E5587AC3E1344AD3E86
:103BC0002102AE3EE0BEAE3E9E7BAF3E5C38B03ED4
:103BD0001BF5B03ED9B1B13E986EB23E562BB33E06
:103BE000C5E6B33E83A3B43E4260B53EB01BB63ECD
:103BF0001FD7B63EDE93B73E4C4FB83EBB0AB93E28
:103C00002AC6B93E9981BA3E083DBB3E77F8BB3E15
:103C100096B2BC3E056EBD3E2428BE3E93E3BE3E3A
:103C2000B29DBF3ED157C03EF111C13E60CDC13EF5
:103C30007F87C23E4F40C33E6EFAC33E8DB4C43E42
:103C4000AD6EC53E7C27C63E4CE0C63E6B9AC73E75
:103C50003B53C83E0B0CC93EDBC4C93EAA7DCA3EDD
:103C60007A36CB3E4AEFCB3E1AA8CC3E9A5FCD3E89
:103C70006A18CE3EEACFCE3E6A87CF3E3A40D03E6B
:103C8000BAF7D03E3AAFD13EBA66D23E3A1ED33EE4
:103C90006BD4D33EEB8BD43E1C42D53E9CF9D53E33
:103CA000CDAFD63E4D67D73E7E1DD83EAED3D83E73
:103CB000DF89D93E1040DA3EF1F4DA3E22ABDB3E3A
:103CC0000360DC3E3316DD3E14CBDD3EF67FDE3E88
:103CD0002636DF3E07EBDF3EE89FE03E7A53E13ECB
:103CE0005B08E23E3CBDE23ECE70E33EAF25E43EE3
:103CF00040D9E43ED28CE53E6440E63EF5F3E63E34
:103D000087A7E73E185BE83EAA0EE93EECC0E93E15
:103D10007E74EA3EC026EB3E02D9EB3E448BEC3E7D
:103D2000863DED3EC8EFED3E0AA2EE3E4C54EF3E1E
:103D30003E05F03E80B7F03E7368F13E6519F23EF5
:103D4000A7CBF23E9A7CF33E8C2DF43E2FDDF43E61
:103D5000228EF53E143FF63EB7EEF63E5A9EF73EF3
:103D60004C4FF83EEFFEF83E92AEF93E355EFA3E1D
:103D7000D80DFB3E2CBCFB3ECF6BFC3E221AFD3E19
:103D8000C5C9FD3E1878FE3E6C26FF3EBFD4FF3EFF
:103D90008941003F0B98003F35EF003FB745013F99
:103DA000E09C013F62F3013FE449023F66A0023F0D
:103DB000E8F6023F6A4D033FECA3033FC6F9033F19
:103DC0004850043F22A6043FFCFB043FD751053F67
:103DD000B1A7053F8BFD053FBD52063F97A8063FA3
:103DE000CAFD063FA453073FD6A8073F09FE073F79
:103DF0003B53083F6DA8083FF8FC083F2A52093F93
:103E0000B5A6093FE7FB093F72500A3FFDA40A3FF0
:103E100087F90A3F124E0B3FF5A10B3F7FF60B3F90
:103E2000624A0C3FED9E0C3FD0F20C3FB2460D3F74
:103E3000959A0D3FD0ED0D3FB3410E3FEE940E3FEE
:103E4000D1E80E3F0C3C0F3F478F0F3F82E20F3F00
:103E5000BD35103FF888103F8CDB103FC72E113F57
:103E60005A81113FEDD3113F8126123F1479123F41
:103E7000A7CB123F3A1E133F2670133F12C2133FC7
:103E8000A514143F9066143F7CB8143F670A153F91
:103E9000AB5B153F97AD153FDAFE153F1E50163F41
:103EA0000AA2163F4DF3163FE943173F2D95173FE2
:103EB00071E6173F0D37183FA987183FEDD8183F17
:103EC0008929193F7D79193F19CA193FB51A1A3F37
:103ED000A96A1A3F45BB1A3F390B1B3F2D5B1B3F9D
:103EE00022AB1B3F6EFA1B3F624A1C3FAF991C3F3F
:103EF000A3E91C3FEF381D3F3C881D3F88D71D3F7D
:103F0000D5261E3F79751E3FC6C41E3F6A131F3F4C
:103F10000F621F3FB4B01F3F58FF1F3FFD4D203FB2
:103F2000FA9B203FF7E9203F9B38213F9886213FAD
:103F300095D4213F9222223FE76F223FE4BD223FEA
:103F4000390B233F8E58233FE3A5233F38F3233F0C
:103F50008E40243FE38D243F90DA243FE527253F20
:103F60009274253F40C1253FED0D263FF359263F72
:103F7000A0A6263FA6F2263FAB3E273F598B273F00
:103F8000B6D6273FBC22283FC16E283F1FBA283F24
:103F90002506293F8351293FE09C293F3EE8293FE0
:103FA000F4322A3F527E2A3F08C92A3FBE132B3FD4
:103FB0001C5F2B3F2AA92B3FE0F32B3F963E2C3F63
:103FC000A4882C3F5BD32C3F691D2D3F77672D3F85
:103FD000DEB02D3FECFA2D3F52442E3F618E2E3F36
:103FE000C7D72E3F2D212F3F946A2F3F53B32F3F2A
:103FF000B9FC2F3F7845303FDE8E303F9DD7303FB4
:10400000B41F313F7368313F31B1313F48F9313F1F
:104010005F41323F7689323F8DD1323FA419333F21
:104020001361333F2AA9333F99F0333F0938343FB6
:10403000787F343FE7C6343FAE0D353F1D55353FE1
:10404000E59B353FACE2353F7429363F3B70363F48
:104050005BB6363F7AFC363F4243373F6189373F94
:1040600081CF373FF914383F185B383F90A0383F75
:1040700008E6383F802B393FF870393F70B6393F3A
:10408000E7FB393FB8403A3F88853A3F58CA3A3F44
:10409000280F3B3FF8533B3F20983B3F48DC3B3FDA
:1040A00018213C3F41653C3FC1A83C3FEAEC3C3F06
:1040B0006A303D3F92743D3F13B83D3F94FB3D3F16
:1040C0006C3E3E3FED813E3FC6C43E3F46083F3F0B
:1040D0001F4B3F3FF88D3F3F29D03F3F0113403FEB
:1040E0003255403F6397403F94D9403FC51B413F05
:1040F000F65D413F809F413FB1E1413F3A23423F5E
:10410000C364423FA4A5423F2EE7423F0F28433FEE
:104110009869433F7AAA433FB3EA433F952B443F14
:10412000766C443FB0AC443FEAEC443F232D453F1E
:104130005D6D453FEFAC453F29ED453FBA2C463F0D
:104140004C6C463FDEAB463F70EB463F5A2A473F3A
:104150004469473F2FA8473F19E7473F0326483F99
:10416000ED64483F2FA3483F72E1483FB41F493FE9
:10417000F65D493F399C493FD3D9493F16184A3F1C
:10418000B0554A3F4B934A3F3ED04A3FD80D4B3F34
:10419000CB4A4B3FBE874B3FB1C44B3FA3014C3F83
:1041A000963E4C3FE17A4C3F2CB74C3F77F34C3F67
:1041B000C22F4D3F0D6C4D3FB1A74D3FFCE34D3F2E
:1041C0009F1F4E3F425B4E3F3E964E3FE1D14E3FDA
:1041D000DD0C4F3FD8474F3FD4824F3FCFBD4F3FBD
:1041E000CBF84F3F1E33503F726D503FC6A7503F34
:1041F00019E2503F6D1C513F1956513FC58F513F39
:1042000071C9513F1D03523FC93C523FCD75523FCA
:10421000D1AE523FD5E7523FDA20533FDE59533FEC
:104220003A92533F3ECB533F9B03543FF73B543F9F
:10423000AC73543F08AC543FBDE3543F711B553F32
:104240002653553FDB8A553F8FC2553F9CF9553F5A
:10425000A930563FB667563FC39E563F28D5563FB6
:10426000350C573F9A42573FFF78573FBCAE573FF8
:1042700021E5573FDF1A583F4451583F5986583F70
:1042800017BC583FD4F1583FE926593FFF5B593FCF
:104290001591593F2AC6593F40FB593FAD2F5A3F10
:1042A0001B645A3F89985A3FF7CC5A3FBD005B3F89
:1042B0002B355B3FF1685B3FB79C5B3F7DD05B3F3D
:1042C0009B035C3FB9365C3F7F6A5C3F9D9D5C3FD2
:1042D00014D05C3F32035D3FA8355D3F1F685D3FF2
:1042E000959A5D3F0CCD5D3FDAFE5D3F51315E3FFB
:1042F00020635E3FEE945E3F15C65E3FE4F75E3F8F
:104300000B295F3F325A5F3F598B5F3F7FBC5F3F56
:10431000FFEC5F3F261E603FA54E603F7C7E603F06
:10432000FBAE603FD3DE603F520F613F293F613FEC
:10433000006F613F309E613F07CE613F37FD613FB7
:10434000672C623FEE5A623F1E8A623FA6B8623F08
:10435000D5E7623F5D16633F3D44633FC572633FEF
:10436000A5A0633F85CE633F65FC633F452A643F5C
:104370007E57643FB684643F96B2643F26DF643F55
:104380005F0C653FEF38653F2766653FB892653F34
:10439000A1BE653F31EB653F1A17663FAA43663FF2
:1043A000936F663FD49A663FBDC6663FFEF1663F97
:1043B0003F1D673F8048673FC173673F5A9E673F15
:1043C000F3C8673F8CF3673F261E683FBF48683FCE
:1043D000B072683FA29C683F93C6683F84F0683F14
:1043E000761A693FBF43693F096D693F5396693F3C
:1043F0009CBF693F3EE8693FE0106A3F82396A3FEF
:1044000024626A3FC68A6A3FC0B26A3FBADA6A3F2C
:10441000B4026B3FAE2A6B3FA8526B3FFB796B3FF8
:104420004DA16B3F9FC86B3FF2EF6B3F9C166C3FFB
:10443000473D6C3FF1636C3F9C8A6C3F46B16C3FDB
:1044400049D76C3F4CFD6C3F4F236D3F52496D3F48
:10445000AD6E6D3F08946D3F63B96D3FBEDE6D3F3D
:1044600019046E3FCC286E3F7F4D6E3F32726E3F17
:10447000E6966E3F99BB6E3FA4DF6E3FB0036F3F81
:10448000BB276F3F1F4B6F3F2A6F6F3F8E926F3F6F
:10449000F2B56F3F55D96F3F11FC6F3F751F703FED
:1044A0003142703F4564703F0187703FBDA9703F46
:1044B000D1CB703FE5ED703F520F713F6631713FD8
:1044C000D252713F3F74713FAB95713F17B7713F47
:1044D000DCD7713F48F9713F0D1A723F2A3A723F9B
:1044E000EE5A723F0B7B723F289B723F45BB723F77
:1044F00062DB723FD7FA723F4C1A733FC139733F88
:104500003659733FAB78733F7897733F46B6733F26
:1045100013D5733FE0F3733F0612743F2B30743FA3
:10452000514E743F766C743FF489743F1AA8743FFF
:1045300097C5743F6DE2743FEBFF743FC11C753F3C
:104540003F3A753F1557753F4373753F1990753F57
:1045500047AC753F75C8753FA4E4753F2A00763FA8
:10456000581C763FDF37763F6553763F446E763F83
:10457000CA89763FA9A4763F87BF763F66DA763F41
:104580009DF4763F7C0F773FB329773FE943773F30
:10459000795D773FAF77773F3F91773FCEAA773FFF
:1045A000B5C3773F44DD773F2BF6773F130F783F56
:1045B000FA27783FE140783F2159783F6171783F91
:1045C000A089783FE0A1783F78B9783F0FD1783F54
:1045D000A7E8783F3F00793FD717793FC72E793F4B
:1045E000B745793FA75C793FEF72793FDF89793F23
:1045F00027A0793F70B6793F10CC793F58E2793FD8
:10460000F9F7793F990D7A3F3A237A3F32387A3F6A
:10461000D34D7A3FCC627A3FC4777A3F158C7A3F8C
:104620000EA17A3F5FB57A3FB0C97A3F59DD7A3F34
:10463000AAF17A3F53057B3FFC187B3FA52C7B3FBB
:10464000A73F7B3F50537B3F51667B3F53797B3F76
:10465000AC8B7B3FAE9E7B3F07B17B3F61C37B3F13
:1046600013D57B3F6DE77B3F1EF97B3FD00A7C3F34
:10467000821C7C3F8C2D7C3F3E3F7C3F48507C3FE2
:10468000AA607C3FB4717C3F17827C3F21937C3FC2
:1046900083A37C3F3EB37C3FA0C37C3F5BD37C3F86
:1046A00015E37C3FD0F27C3FE2017D3FF5107D3F7A
:1046B00008207D3F1B2F7D3F2D3E7D3F984C7D3F49
:1046C000035B7D3F6E697D3FD9777D3F9D857D3F53
:1046D00060937D3F23A17D3FE6AE7D3F02BC7D3FE1
:1046E000C5C97D3FE0D67D3F54E37D3F6FF07D3F00
:1046F000E3FC7D3F57097E3FCA157E3F3E227E3F49
:104700000A2E7E3FD6397E3FA2457E3F6E517E3FC8
:10471000925C7E3F5E687E3F82737E3FFE7D7E3F81
:1047200022897E3F9F937E3F1B9E7E3F97A87E3FC0
:1047300014B37E3FE8BC7E3FBDC67E3F91D07E3F36
:10474000BED97E3F93E37E3FC0EC7E3FEDF57E3FDA
:1047500019FF7E3F9E077F3F23107F3FA8187F3FB2
:104760002D217F3FB3297F3F90317F3F6D397F3FC0
:104770004A417F3F80487F3F5D507F3F93577F3F57
:10478000C85E7F3F56657F3F8B6C7F3F19737F3FCD
:10479000A7797F3F34807F3F1A867F3F008C7F3F21
:1047A000E6917F3FCC977F3FB29D7F3FF0A27F3F56
:1047B0002FA87F3F6DAD7F3F03B27F3F41B77F3F63
:1047C000D8BB7F3F6EC07F3F5DC47F3FF3C87F3F54
:1047D000E2CC7F3FD0D07F3FBFD47F3F06D87F3F22
:1047E0004DDB7F3F94DE7F3FDAE17F3F21E57F3F76
:1047F000C0E77F3F60EA7F3FFFEC7F3FF6EE7F3F01
:1048000095F17F3F8CF37F3F84F57F3FD3F67F3F69
:10481000CBF87F3F1AFA7F3F6AFB7F3FB9FC7F3FAF
:1048200061FD7F3F09FE7F3FB0FE7F3F58FF7F3F26
:104830000000803F0000803F0000803F0000803F7C
:1048400058FF7F3F58FF7F3FB0FE7F3F09FE7F3F0D
:10485000B9FC7F3F11FC7F3FC2FA7F3F72F97F3F77
:1048600023F87F3F2BF67F3F34F47F3F3DF27F3FBD
:1048700045F07F3F4EEE7F3FAFEB7F3F10E97F3F3C
:1048800071E67F3F2AE37F3F8BE07F3F44DD7F3F40
:10489000FDD97F3F0FD67F3FC8D27F3FD9CE7F3F24
:1048A000EACA7F3FFCC67F3F65C27F3FCFBD7F3FE7
:1048B00039B97F3FA2B47F3F0CB07F3FCEAA7F3F84
:1048C0008FA57F3F51A07F3F6B9A7F3F2D957F3F04
:1048D000478F7F3F61897F3FD4827F3FEE7C7F3F60
:1048E00060767F3FD26F7F3F44697F3F0F627F3F9B
:1048F000D95A7F3FA4537F3F6E4C7F3F39457F3F5E
:104900005C3D7F3F7E357F3FA12D7F3F1C257F3F54
:104910003F1D7F3FBA147F3F350C7F3F08037F3F29
:1049200083FA7E3F56F17E3F29E87E3FFCDE7E3FE4
:1049300028D57E3F53CB7E3F7FC17E3FAAB77E3FC7
:10494000D6AD7E3F59A37E3FDD987E3F618E7E3F90
:10495000E4837E3FC0787E3F9C6D7E3F78627E3FE1
:1049600054577E3F884B7E3FBC3F7E3FF0337E3FB7
:1049700024287E3F581C7E3FE40F7E3F71037E3F1C
:10498000FDF67D3FE2E97D3F6EDD7D3F53D07D3F0B
:1049900037C37D3F74B57D3F58A87D3F959A7D3FD5
:1049A000D28C7D3F677E7D3FA4707D3F39627D3F25
:1049B000CE537D3F63457D3F50367D3FE5277D3FAC
:1049C000D2187D3FC0097D3F05FA7C3FF2EA7C3F6B
:1049D00038DB7C3F7DCB7C3F1BBB7C3F60AB7C3FAF
:1049E000FE9A7C3F9C8A7C3F3A7A7C3F2F697C3FD1
:1049F000CD587C3FC3477C3F11367C3F07257C3F29
:104A000055137C3F4B027C3FF2EF7B3F40DE7B3F08
:104A10008ECC7B3F34BA7B3FDBA77B3FD9947B3F77
:104A200080827B3F7E6F7B3F7D5C7B3F7B497B3F12
:104A30007A367B3FD1227B3F280F7B3F7FFB7A3F3B
:104A4000D5E77A3F84D37A3F34BF7A3FE3AA7A3FEF
:104A500092967A3F99817A3F486D7A3F4F587A3FD4
:104A600057437A3FB62D7A3FBD187A3F1D037A3FF0
:104A70007CED793F34D7793F94C1793F4BAB793F97
:104A80000395793FBB7E793FCB67793FDB50793F18
:104A9000EB39793FFB22793F0B0C793F73F4783F78
:104AA000DBDC783F43C5783FACAD783F6C95783F11
:104AB000D47D783F9565783FAD4C783F6E34783F34
:104AC000861B783F9F02783FB8E9773FD0D0773F89
:104AD00041B7773FB29D773F2384773F946A773F12
:104AE0005D50773FCE36773F971C773F6002773F28
:104AF00082E7763FA3CC763F6CB2763F8D97763FC8
:104B0000077C763F2861763FA245763F1B2A763F99
:104B1000950E763F67F2753F39D6753FB2BA753F4D
:104B2000DC9D753FAE81753FD864753FAA48753FDF
:104B3000D42B753F560E753F80F1743F02D4743FFD
:104B400085B6743F0799743F897B743F645D743FF9
:104B50003E3F743F1821743FF302743F26E4733FD5
:104B600058C5733F33A7733FBE87733FF168733FE8
:104B70007B49733F062A733F910A733F1CEB723FD8
:104B8000FFCA723F8AAB723F6E8B723F516B723FAE
:104B90008C4A723FC729723FAB09723FE6E8713F0A
:104BA0007AC7713FB5A6713F4985713FDC63713F9C
:104BB0007042713F5C20713FEFFE703FDBDC703F65
:104BC000C7BA703F0B98703FF775703F3B53703F0B
:104BD0007F30703FC30D703F60EA6F3FA4C76F3FE7
:104BE00040A46F3FDC806F3F795D6F3F6D396F3F51
:104BF00062156F3F56F16E3F4BCD6E3F3FA96E3F42
:104C00008C846E3FD95F6E3F253B6E3F72166E3FC0
:104C1000BFF16D3F64CC6D3F09A76D3FAE816D3F25
:104C2000AB5B6D3F50366D3F4D106D3F4BEA6C3FB7
:104C300048C46C3F9D9D6C3F9A776C3FF0506C3F31
:104C4000452A6C3FF3026C3F48DC6B3FF6B46B3F88
:104C5000A48D6B3F51666B3F573E6B3F05176B3F13
:104C60000BEF6A3F11C76A3F179F6A3F75766A3F2D
:104C7000D34D6A3F31256A3F8FFC693FEDD3693FD1
:104C8000A4AA693F0282693FB858693FC72E693FAD
:104C90007D05693F8CDB683F9AB1683FA987683F13
:104CA000B75D683FC633683F2D09683F94DE673FB4
:104CB000FAB3673FB988673F205E673FDF32673FDF
:104CC0009E07673F5DDC663F1CB1663F3485663FEB
:104CD0004B59663F622D663F7901663FE9D4653FD7
:104CE00000A9653F707C653FDF4F653FA722653FA8
:104CF00016F6643FDEC8643FA69B643F6E6E643F59
:104D00003541643F5513643F75E5633F95B7633F95
:104D1000B589633FD55B633F4D2D633FC5FE623F61
:104D20003ED0623FB6A1623F8672623FFE43623F61
:104D3000CF14623F9FE5613FC8B5613F9886613FF0
:104D4000C156613FE926613F12F7603F3BC7603FB4
:104D5000BC96603FE466603F6536603F3E05603F5D
:104D6000BFD45F3F98A35F3F19735F3FF2415F3F3E
:104D7000CB105F3FFCDE5E3FD6AD5E3F077C5E3F03
:104D8000384A5E3F6A185E3FF3E55D3F24B45D3FFD
:104D9000AE815D3F374F5D3F191C5D3FA3E95C3F2E
:104DA00085B65C3F0E845C3FF0505C3F2A1D5C3F43
:104DB0000CEA5B3F46B65B3F80825B3FBA4E5B3F8F
:104DC000F41A5B3F2EE75A3FC0B25A3F527E5A3F19
:104DD000E4495A3F77155A3F61E0593FF3AB593FD9
:104DE000DE76593FC841593F0B0C593FF5D6583F25
:104DF00038A1583F226C583FBD35583F0000583FFE
:104E000043CA573FDE93573F795D573F1327573FBC
:104E1000AEF0563F49BA563F3C83563F304C563F62
:104E20002315563F16DE553F61A6553F546F553F3B
:104E3000A037553FEBFF543F36C8543FDA8F543FFD
:104E40002558543FC91F543F6DE7533F10AF533FA0
:104E50000C76533FB03D533FAB04533FA7CB523F7B
:104E6000A392523FF758523FF31F523F47E6513F3C
:104E70009BAC513FEF72513F4339513FEFFE503FE2
:104E800043C5503FF08A503F9C50503FA015503FC3
:104E90004DDB4F3F51A04F3F56654F3F5A2A4F3F82
:104EA0005FEF4E3F63B44E3FC0784E3F1D3D4E3FD7
:104EB00079014E3FD6C54D3F338A4D3FE84D4D3FBA
:104EC0009D114D3F52D54C3F07994C3FBC5C4C3F28
:104ED000C91F4C3F7EE34B3F8BA64B3F98694B3F2E
:104EE000A52C4B3F0BEF4A3F70B14A3F7E744A3FBF
:104EF000E3364A3FA1F8493F06BB493F6B7D493F36
:104F0000293F493FE700493FA4C2483FBA83483F91
:104F10007845483F8E06483FA4C7473FB988473F7A
:104F2000CF49473FE50A473F53CB463FC18B463FFA
:104F3000304C463F9E0C463F0CCD453F7A8D453F59
:104F4000404D453F060D453FCDCC443F938C443FFB
:104F5000B24B443F780B443F97CA433FB589433F28
:104F6000D448433FF207433F69C6423F8885423FEA
:104F7000FE43423F7502423F44C0413FBB7E413F3A
:104F8000323D413F01FB403FD0B8403F9F76403F1C
:104F90006E34403F95F13F3F64AF3F3F8B6C3F3FE6
:104FA000B3293F3FDAE63E3F59A33E3F80603E3F94
:104FB000001D3E3F7FD93D3FFF953D3F7E523D3F27
:104FC000FE0E3D3FD5CA3C3FAD863C3F2D433C3FA6
:104FD00004FF3B3F34BA3B3F0C763B3F3C313B3F09
:104FE00014ED3A3F44A83A3F73633A3FFC1D3A3F01
:104FF0002BD9393FB493393F3C4E393FC408393F30
:105000004CC3383FD47D383F5C38383F3DF2373FA2
:105010001DAC373FFE65373FDE1F373FBED9363FF9
:10502000F792363FD74C363F1006363F48BF353FE4
:105030008178353F1231353F4BEA343FDBA2343FB4
:10504000145C343FA514343F8ECC333F1F85333F6F
:10505000B03D333F99F5323F82AD323F6B65323F11
:10506000541D323F3DD5313F7E8C313F6744313F47
:10507000A9FB303FEAB2303F2B6A303F6C21303F12
:1050800006D82F3F478F2F3FE1452F3F7AFC2E3F19
:1050900014B32E3FAD692E3F9F1F2E3F39D62D3FB3
:1050A0002A8C2D3F1C422D3F0EF82C3F00AE2C3F8A
:1050B000F1632C3F3B192C3F85CE2B3F77842B3F50
:1050C000C1392B3F63EE2A3FADA32A3FF7582A3F51
:1050D000990D2A3F3BC2293FDE76293F802B293F8D
:1050E00022E0283FC494283FBF48283FB9FC273F0F
:1050F0005BB1273F5665273FA818273FA3CC263F23
:105100009D80263FF033263F43E7253F959A253F74
:10511000E84D253F3B01253F8DB4243F3867243FB0
:10512000E319243F8ECC233F397F233FE431233FD3
:105130008FE4223F3997223F3D49223F40FB213FE8
:1051400043AD213F465F213F4911213F4CC3203FE2
:10515000A774203FAB26203F06D81F3F61891F3F21
:10516000BD3A1F3F18EC1E3FCB9C1E3F274E1E3FF3
:10517000DAFE1D3F8EAF1D3F42601D3FF5101D3F03
:10518000A9C11C3F5C721C3F68221C3F1CD31B3F03
:1051900027831B3F33331B3F3FE31A3FA3921A3F42
:1051A000AF421A3FBBF2193F1FA2193F8351193F6B
:1051B000E700193F4BB0183FAF5F183F6B0E183F29
:1051C000CFBD173F8B6C173FEF1B173FACCA163F85
:1051D0006879163F7C27163F39D6153FF584153F71
:1051E0000933153F1EE1143F328F143F473D143FF2
:1051F0005BEB133F7099133FDC46133FF1F4123F12
:105200005EA2123FCA4F123F37FD113FA4AA113FC1
:105210001058113F7D05113F42B2103F075F103F0C
:10522000740C103F39B90F3FFE650F3F1B120F3F43
:10523000E0BE0E3FA56B0E3FC2170E3FDFC30D3F12
:10524000A4700D3FC11C0D3FDEC80C3F54740C3FD1
:1052500071200C3F8ECC0B3F03780B3F79230B3F23
:10526000EECE0A3F637A0A3FD9250A3F4ED1093F65
:10527000C47C093F9127093F07D3083FD47D083FED
:10528000A228083F6FD3073F3D7E073F0B29073F0A
:1052900031D3063FFE7D063F2428063F4AD2053F14
:1052A000187D053F3D27053FBBD0043FE17A043F11
:1052B0000725043F85CE033FAB78033F2922033FF8
:1052C000A7CB023F2575023FA31E023F21C8013F25
:1052D0009F71013F761A013FF4C3003FCA6C003F43
:1052E000A015003FEE7CFF3E9ACEFE3E4720FE3EDC
:1052F000F371FD3EA0C3FC3EFD13FC3E5A64FB3E31
:1053000007B6FA3E6406FA3EC156F93E1EA7F83EBD
:105310007BF7F73E8846F73EE696F63EF3E5F53E28
:105320005036F53E5E85F43E6BD4F33E7923F33E72
:105330008672F23E94C1F13EA110F13E5F5EF03EF6
:105340006DADEF3E2BFBEE3EE948EE3EA796ED3EFF
:1053500065E4EC3E2332EC3EE17FEB3E9FCDEA3E3E
:105360000D1AEA3ECB67E93E39B4E83EF701E83E64
:10537000664EE73ED49AE63E43E7E53EB133E53E6E
:10538000D07EE43E3ECBE33EAD17E33ECC62E23E50
:10539000EBADE13E59FAE03E7845E03E9790DF3EC6
:1053A000B6DBDE3E8525DE3EA470DD3EC3BBDC3EC3
:1053B0009205DC3EB150DB3E809ADA3E50E4D93EA5
:1053C0001F2ED93EEE77D83EBEC1D73E8D0BD73EBD
:1053D0005C55D63EDC9DD53EABE7D43E2B30D43E6B
:1053E000AB78D33E7AC2D23EFA0AD23E7A53D13E4D
:1053F000FA9BD03E7AE4CF3EAA2BCF3E2A74CE3E13
:105400005ABBCD3EDA03CD3E0A4BCC3E8A93CB3E0F
:10541000BADACA3EEA21CA3E1A69C93E4BB0C83E52
:105420002BF6C73E5C3DC73E8C84C63E6DCAC53E6A
:105430009D11C53E7E57C43E5E9DC33E3FE3C23EC6
:105440006F2AC23E5070C13EE1B4C03EC2FABF3EB8
:10545000A340BF3E8386BE3E14CBBD3EF510BD3E8D
:105460008655BC3E179ABB3EA9DEBA3E3A23BA3EE9
:105470001A69B93E5CACB83EEDF0B73E7E35B73E3A
:10548000107AB63E51BDB53EE201B53E2445B43E6C
:10549000B589B33EF7CCB23E3810B23E7A53B13E36
:1054A000BC96B03EFDD9AF3E3F1DAF3E8060AE3EE4
:1054B00073A2AD3EB4E5AC3EF628AC3EE86AAB3E26
:1054C000DAACAA3E1CF0A93E0E32A93E0074A83EFA
:1054D000F2B5A73EE4F7A63ED639A63EC87BA53E68
:1054E000BABDA43E5DFEA33E4F40A33E4182A23E14
:1054F000E3C2A13E8603A13E7845A03E1A869F3EA8
:10550000BDC69E3E5F079E3E02489D3EA4889C3ECF
:1055100047C99B3EEA099B3E8C4A9A3EDF89993EE9
:1055200082CA983ED509983E774A973ECA89963EE8
:105530006DCA953EC009953E1349943E6688933ED8
:10554000B9C7923E0C07923E5F46913EB285903EAF
:1055500005C58F3E08038F3E5B428E3E5E808D3ECA
:10556000B1BF8C3EB5FD8B3E083D8B3E0B7B8A3E2A
:105570000FB9893E62F8883E6536883E6974873E79
:105580006CB2863E6FF0853E732E853E276B843E5F
:105590002AA9833E2EE7823EE223823EE561813ED8
:1055A000E89F803E39B97F3EA0327E3EA7AE7C3E6A
:1055B0000F287B3E77A1793EDF1A783EE696763E4D
:1055C0004D10753EB589733E1D03723EE679703EFF
:1055D0004DF36E3EB56C6D3E1DE66B3EE65C6A3E7D
:1055E0004DD6683EB54F673E7EC6653E473D643E3C
:1055F000AEB6623E772D613EDFA65F3EA81D5E3EE1
:1056000070945C3E390B5B3E0282593ECBF8573EAC
:10561000936F563E5CE6543E255D533EEDD3513EBE
:10562000B64A503EE0BE4E3EA8354D3E71AC4B3EB4
:105630009B204A3E6397483E8D0B473E5682453E2F
:105640007FF6433E486D423E72E1403E9B553F3EF1
:1056500064CC3D3E8E403C3EB7B43A3EE128393EF4
:105660000A9D373E3411363E5E85343E87F9323E20
:10567000B16D313EDAE12F3E04562E3E2ECA2C3E4D
:10568000B83B2B3EE2AF293E0B24283E9695263EA2
:10569000C009253E4A7B233E74EF213EFE60203E3A
:1056A00028D51E3EB2461D3EDCBA1B3E672C1A3E74
:1056B000F19D183E7C0F173EA583153E30F5133E35
:1056C000BA66123E45D8103ECF490F3E5ABB0D3E3A
:1056D000E42C0C3E6F9E0A3EF90F093E8481073E82
:1056E0000EF3053E9964043E24D6023EAE47013EC9
:1056F000336DFF3D4850FC3D5D33F93D7216F63D7C
:1057000049F4F23D5ED7EF3D35B5EC3D4A98E93DB1
:105710005F7BE63D3659E33D4B3CE03D221ADD3DE3
:1057200037FDD93D0EDBD63DE5B8D33DFA9BD03DE4
:10573000D179CD3DC059CA3D2A39C73D9318C43DE2
:10574000FDF7C03DE0D6BD3DC4B5BA3DA794B73D19
:105750008A73B43D6E52B13DCB30AE3D280FAB3DA8
:1057600085EDA73DE2CBA43DB9A9A13D90879E3D23
:10577000ED659B3DC443983D1421953DEBFE913D65
:105780003CDC8E3D13BA8B3D6397883DB474853DF8
:105790000552823D9E5D7E3D4018783DD4D1713DDD
:1057A000768C6B3D0B46653DA0FF5E3D34B9583DA0
:1057B000BD71523D522B4C3DDAE3453D6F9D3F3D5F
:1057C000F855393D800E333D08C72C3D917F263D6D
:1057D0001938203DA2F0193D2AA9133DA6600D3DC0
:1057E0002F19073DABD0003D4D10F53C5E81E83CE4
:1057F00056F0DB3C4E5FCF3C46CEC23C3E3DB63C15
:1058000036ACA93C2E1B9D3C268A903C1EF9833C5D
:105810002DD06E3C1DAE553CDB873C3C3766233CAF
:1058200050430A3C253FE23B81F8AF3BB9637B3BE9
:10583000C3D4163B941C493A941C49BAC3D416BB32
:10584000B9637BBB81F8AFBB253FE2BB50430ABCC9
:10585000376623BCDB873CBC1DAE55BC2DD06EBC6F
:105860001EF983BC268A90BC2E1B9DBC36ACA9BCFD
:105870003E3DB6BC46CEC2BC4E5FCFBC56F0DBBC94
:105880005E81E8BC4D10F5BCABD000BD2F1907BD43
:10589000A6600DBD2AA913BDA2F019BD193820BDFF
:1058A000917F26BD08C72CBD800E33BDF85539BD8C
:1058B0006F9D3FBDDAE345BD522B4CBDBD7152BD5E
:1058C00034B958BDA0FF5EBD0B4665BD768C6BBD7F
:1058D000D4D171BD401878BD9E5D7EBD055282BD9C
:1058E000B47485BD639788BD13BA8BBD3CDC8EBD97
:1058F000EBFE91BD142195BDC44398BDED659BBDE4
:1059000090879EBDB9A9A1BDE2CBA4BD85EDA7BD81
:10591000280FABBDCB30AEBD6E52B1BD8A73B4BDE6
:10592000A794B7BDC4B5BABDE0D6BDBDFDF7C0BD37
:105930009318C4BD2A39C7BDC059CABDD179CDBDE0
:10594000FA9BD0BDE5B8D3BD0EDBD6BD37FDD9BDC2
:10595000221ADDBD4B3CE0BD3659E3BD5F7BE6BDA1
:105960004A98E9BD35B5ECBD5ED7EFBD49F4F2BD4F
:105970007216F6BD5D33F9BD4850FCBD336DFFBDF9
:10598000AE4701BE24D602BE996404BE0EF305BE26
:10599000848107BEF90F09BE6F9E0ABEE42C0CBEBF
:1059A0005ABB0DBECF490FBE45D810BEBA6612BE57
:1059B00030F513BEA58315BE7C0F17BEF19D18BE32
:1059C000672C1ABEDCBA1BBEB2461DBE28D51EBE51
:1059D000FE6020BE74EF21BE4A7B23BEC00925BEF7
:1059E000969526BE0B2428BEE2AF29BEB83B2BBE3F
:1059F0002ECA2CBE04562EBEDAE12FBEB16D31BECA
:105A000087F932BE5E8534BE341136BE0A9D37BE7C
:105A1000E12839BEB7B43ABE8E403CBE64CC3DBE30
:105A20009B553FBE72E140BE486D42BE7FF643BE0D
:105A3000568245BE8D0B47BE639748BE9B204ABE2B
:105A400071AC4BBEA8354DBEE0BE4EBEB64A50BE90
:105A5000EDD351BE255D53BE5CE654BE936F56BE7A
:105A6000CBF857BE028259BE390B5BBE70945CBE48
:105A7000A81D5EBEDFA65FBE772D61BEAEB662BE5C
:105A8000473D64BE7EC665BEB54F67BE4DD668BE97
:105A9000E65C6ABE1DE66BBEB56C6DBE4DF36EBEB8
:105AA000E67970BE1D0372BEB58973BE4D1075BE1A
:105AB000E69676BEDF1A78BE77A179BE0F287BBE48
:105AC000A7AE7CBEA0327EBE39B97FBEE89F80BE45
:105AD000E56181BEE22382BE2EE782BE2AA983BE93
